:100000000C9463000C948B000C948B000C948B006C
:100010000C948B000C948B000C948B000C948B0034
:100020000C948B000C948B000C948B000C948B0024
:100030000C948B000C948B000C948B000C948B0014
:100040000C94CE020C948B000C949C020C947602BF
:100050000C948B000C948B000C948B000C948B00F4
:100060000C948B000C948B000000000024002700EF
:100070002A000000000023002600290000000000E4
:10008000250028002B0004040404040404040202D4
:100090000202020203030303030301020408102007
:1000A0004080010204081020010204081020000012
:1000B0000008000201000003040700000000000027
:1000C00000001803700511241FBECFEFD8E0DEBF7B
:1000D000CDBF21E0A2E2B1E001C01D92AA3DB2076E
:1000E000E1F711E0A0E0B1E0E0E4F0E102C005904A
:1000F0000D92A232B107D9F710E0C2E6D0E004C0F9
:100100002197FE010E941B06C136D107C9F70E9444
:100110008C030C9413080C940000AF92BF92CF9202
:10012000DF92EF92FF920F931F93CF93DF936C01B7
:100130007B018B01040F151FEB015E01AE18BF0898
:10014000C017D10759F06991D601ED91FC9101904A
:10015000F081E02DC6010995892B79F7C501DF9162
:10016000CF911F910F91FF90EF90DF90CF90BF90B4
:10017000AF900895FC01538D448D252F30E0842FDE
:1001800090E0821B930B541710F0CF9608950197BF
:100190000895FC01918D828D981761F0A28DAE0FAC
:1001A000BF2FB11D5D968C91928D9F5F9F73928F33
:1001B00090E008958FEF9FEF0895FC01918D828D5F
:1001C000981731F0828DE80FF11D858D90E008952C
:1001D0008FEF9FEF0895FC01918D228D892F90E084
:1001E000805C9F4F821B91098F739927089583E349
:1001F00091E00E94EB0021E0892B09F420E0822F9E
:10020000089580E090E0892B29F00E94F700811189
:100210000C9400000895FC01A48DA80FB92FB11D06
:10022000A35ABF4F2C91848D90E001968F7399272C
:10023000848FA689B7892C93A089B1898C9183700A
:1002400080648C93938D848D981306C00288F38903
:10025000E02D80818F7D80830895EF92FF920F9330
:100260001F93CF93DF93EC0181E0888F9B8D8C8D62
:1002700098131AC0E889F989808185FF15C09FB756
:10028000F894EE89FF896083E889F9898081837019
:10029000806480839FBF81E090E0DF91CF911F91C8
:1002A0000F91FF90EF900895F62E0B8D10E00F5FE9
:1002B0001F4F0F731127E02E8C8D8E110CC00FB6BF
:1002C00007FCFACFE889F989808185FFF5CFCE0157
:1002D0000E940B01F1CFEB8DEC0FFD2FF11DE35AC6
:1002E000FF4FF0829FB7F8940B8FEA89FB898081DA
:1002F0008062CFCFCF93DF93EC01888D8823B9F054
:10030000AA89BB89E889F9898C9185FD03C0808120
:1003100086FD0DC00FB607FCF7CF8C9185FFF2CF9D
:10032000808185FFEDCFCE010E940B01E9CFDF91E7
:10033000CF910895833081F028F4813099F0823094
:10034000A9F008958730A9F08830C9F08430B1F45D
:10035000809180008F7D03C0809180008F77809393
:100360008000089584B58F7784BD089584B58F7D0E
:10037000FBCF8091B0008F778093B000089580917B
:10038000B0008F7DF9CF3FB7F89480912301909111
:100390002401A0912501B091260126B5A89B05C096
:1003A0002F3F19F00196A11DB11D3FBFBA2FA92FF4
:1003B000982F8827BC01CD01620F711D811D911DF1
:1003C00042E0660F771F881F991F4A95D1F708955D
:1003D000FC0101900020E9F73197AF01481B590B50
:1003E000BC0183E391E00C948D00CF93DF93EC018B
:1003F0008091D0019091D101009759F02091D201C4
:100400003091D3012C173D0720F081E0DF91CF918F
:100410000895BE016F5F7F4F0E944607009789F0E5
:100420009093D1018093D001D093D301C093D20196
:100430002091D4013091D501232B39F7FC01108292
:10044000E4CF80E0E3CF0F931F93CF93DF93611549
:100450007105E9F08C01C091D401D091D501C60F8E
:10046000D71FCE010E94F501882391F02091D00181
:100470003091D1018091D4019091D501B801820FC2
:10048000931F0E940C08D093D501C093D40181E042
:10049000DF91CF911F910F9108950F931F93CF93E9
:1004A000DF93CDB7DEB72D970FB6F894DEBF0FBE42
:1004B000CDBF2AE08E010F5F1F4FA8010E94760575
:1004C000F80101900020E9F73197BF01601B710B23
:1004D000C8010E9423022D960FB6F894DEBF0FBE0E
:1004E000CDBFDF91CF911F910F9108951F920F9271
:1004F0000FB60F9211242F933F934F935F936F93F7
:100500007F938F939F93AF93BF93EF93FF9383E377
:1005100091E00E940B01FF91EF91BF91AF919F91EC
:100520008F917F916F915F914F913F912F910F909C
:100530000FBE0F901F9018951F920F920FB60F923B
:1005400011242F938F939F93EF93FF93E091430197
:10055000F09144018081E0914901F0914A0182FDCE
:100560001BC0908180914C018F5F8F7320914D0152
:10057000821741F0E0914C01F0E0ED5CFE4F958F69
:1005800080934C01FF91EF919F918F912F910F904C
:100590000FBE0F901F9018958081F4CF1F920F927D
:1005A0000FB60F9211242F933F938F939F93AF9386
:1005B000BF938091270190912801A0912901B091CA
:1005C0002A013091220123E0230F2D3758F501969F
:1005D000A11DB11D20932201809327019093280132
:1005E000A0932901B0932A018091230190912401C5
:1005F000A0912501B09126010196A11DB11D809306
:10060000230190932401A0932501B0932601BF916B
:10061000AF919F918F913F912F910F900FBE0F90AF
:100620001F90189526E8230F0296A11DB11DD2CF69
:10063000109236011092350188EE93E0A0E0B0E010
:100640008093370190933801A0933901B0933A0118
:100650008AE091E0909334018093330185EC90E03F
:100660009093400180933F0184EC90E0909342018D
:100670008093410180EC90E090934401809343018A
:1006800081EC90E0909346018093450182EC90E0EC
:10069000909348018093470186EC90E090934A0143
:1006A0008093490110924C0110924D0110924E011D
:1006B00010924F011092D1011092D0011092D301EB
:1006C0001092D2011092D5011092D40190E080E0F6
:1006D0000E94F5012091D0013091D101811113C008
:1006E0002115310519F0C9010E94BD061092D101F2
:1006F0001092D0011092D5011092D4011092D30122
:100700001092D20108951092D5011092D40160E2A6
:1007100071E0C9010C940C08CF93DF93CDB7DEB71D
:10072000A1970FB6F894DEBF0FBECDBF789484B505
:10073000826084BD84B5816084BD85B5826085BDDD
:1007400085B5816085BD80916E00816080936E006B
:10075000109281008091810082608093810080915D
:10076000810081608093810080918000816080930E
:1007700080008091B10084608093B1008091B000CE
:1007800081608093B00080917A00846080937A00C9
:1007900080917A00826080937A0080917A008160F3
:1007A00080937A0080917A00806880937A0010921A
:1007B000C100E0914301F091440182E08083E09127
:1007C0003F01F09140011082E0914101F09142011E
:1007D0008FEC808310924B01E0914701F09148012A
:1007E00086E08083E0914501F0914601808180613F
:1007F0008083E0914501F09146018081886080838B
:10080000E0914501F0914601808180688083E0910C
:100810004501F091460180818F7D8083E7EAF0E019
:10082000249143E9242E40E0342EF1018491882361
:1008300099F090E0880F991FFC01E859FF4FA591AE
:10084000B491FC01E458FF4F859194918FB7F894CF
:100850009C91292B2C938FBF90E080E00E94F501A2
:100860002091D0013091D10181112BC12115310589
:1008700019F0C9010E94BD061092D1011092D00159
:100880001092D5011092D4011092D3011092D2018E
:100890008FB7F894209127013091280140912901C8
:1008A00050912A018FBF19A28E010F5D1F4FCA01FF
:1008B000B9012AE030E040E050E00E94F905605DB7
:1008C000F80162938F01211531054105510579F732
:1008D000309719F0CF010E94E80188E191E00E9471
:1008E000E8018FB7F894C0902701D0902801E090DC
:1008F0002901F0902A018FBFC701B60120E63AEE28
:1009000040E050E00E94F90549015A01C701B601D3
:1009100020E83EEE46E350E00E94F90529013A0145
:10092000ACE3B0E00E94A805A5019401261B370B9B
:10093000480B590BDA01C90180932F0190933001C4
:10094000A0933101B0933201C701B60128EE33E024
:1009500040E050E00E94F90569017A01ACE3B0E0A3
:10096000A50194010E94A805C61AD70AE80AF90A47
:10097000C0922B01D0922C01E0922D01F0922E0119
:10098000C301B2010E944D0261E070E08CE191E090
:100990000E94230260912F017091300180913101FA
:1009A000909132010E944D0261E070E08CE191E093
:1009B0000E94230260912B0170912C0180912D01E6
:1009C00090912E010E944D024091D4015091D50189
:1009D0006091D0017091D10183E391E00E948D007C
:1009E0008EE191E00E94E8010E94C3012B013C01CD
:1009F0002AEFC22ED12CE12CF12C0E94C3016419E4
:100A0000750986099709683E734081059105A8F329
:100A100031E0C31AD108E108F10848EE440E43E082
:100A2000541E611C711CC114D104E104F10429F7A6
:100A3000EBEBF0E08491E7EAF0E00491F10114912E
:100A4000112309F448C081110E949A01E12FF0E0BE
:100A5000EE0FFF1FEE58FF4FA591B4918C91082324
:100A600091E080E009F490E0092F182FEBEBF0E023
:100A70008491E7EAF0E0E490F101F490FF20A1F026
:100A800081110E949A01EF2DF0E0EE0FFF1FE45854
:100A9000FF4FA591B4918FB7F8949C91012BF1F081
:100AA000E094E922EC928FBF20E030E0232B09F4A0
:100AB000D3CE0E94F700882309F4CECE0E94000016
:100AC000CBCE1092D5011092D40160E271E0C90141
:100AD0000E940C08DDCE10E000E0C8CFE92AE2CF8A
:100AE0008091D0019091D1010C94BD06BB27FA01F1
:100AF000A62F6217710581059105330B30FB66F057
:100B0000AA27660F771F881F991FAA1FA21710F028
:100B1000A21B63953850A9F7A05DAA3308F0A95D20
:100B2000A19336F7B111B1931082CA010C949805C4
:100B3000DC01FC01672F71917723E1F7329704C044
:100B40007C916D9370836291AE17BF07C8F30895CF
:100B50000E94EA05A59F900DB49F900DA49F800D63
:100B6000911D112408952F923F924F925F926F92A0
:100B70007F928F929F92AF92BF92CF92DF92EF922D
:100B8000FF920F931F93CF93DF93CDB7DEB7CA1BAE
:100B9000DB0B0FB6F894DEBF0FBECDBF09942A88D9
:100BA000398848885F846E847D848C849B84AA8481
:100BB000B984C884DF80EE80FD800C811B81AA810E
:100BC000B981CE0FD11D0FB6F894DEBF0FBECDBFD9
:100BD000ED010895A29FB001B39FC001A39F700DC6
:100BE000811D1124911DB29F700D811D1124911D35
:100BF0000895A1E21A2EAA1BBB1BFD010DC0AA1F5E
:100C0000BB1FEE1FFF1FA217B307E407F50720F075
:100C1000A21BB30BE40BF50B661F771F881F991FF0
:100C20001A9469F760957095809590959B01AC0139
:100C3000BD01CF010895EE0FFF1F0590F491E02D47
:100C400009940F931F93CF93DF938230910510F493
:100C500082E090E0E091D801F091D90130E020E00D
:100C6000B0E0A0E0309799F42115310509F44AC0AD
:100C7000281B390B24303105D8F58A819B816115F9
:100C8000710589F1FB0193838283FE0111C04081CC
:100C900051810281138148175907E0F0481759071D
:100CA00099F4109761F012960C93129713961C9377
:100CB0003296CF01DF91CF911F910F91089500934C
:100CC000D8011093D901F4CF2115310551F0421705
:100CD000530738F0A901DB019A01BD01DF01F801DA
:100CE000C1CFEF01F9CF9093D9018093D801CDCF37
:100CF000FE01E20FF31F8193919322503109398352
:100D00002883D7CF2091D6013091D701232B41F4EE
:100D100020910201309103013093D7012093D60135
:100D200020910001309101012115310541F42DB7C9
:100D30003EB74091040150910501241B350BE09111
:100D4000D601F091D701E217F307A0F42E1B3F0B59
:100D50002817390778F0AC014E5F5F4F241735072D
:100D600048F04E0F5F1F5093D7014093D6018193F7
:100D700091939FCFF0E0E0E09CCFCF93DF9300977B
:100D8000E9F0FC01329713821282A091D801B09150
:100D9000D901ED0130E020E01097A1F420813181EC
:100DA000820F931F2091D6013091D7012817390760
:100DB00009F061C0F093D701E093D601DF91CF91A4
:100DC0000895EA01CE17DF07E8F54A815B819E01AD
:100DD00041155105B1F7E901FB83EA834991599126
:100DE000C40FD51FEC17FD0761F480819181029635
:100DF000840F951FE90199838883828193819B8366
:100E00008A83F0E0E0E012968D919C911397009711
:100E1000B9F52D913C911197CD010296820F931F48
:100E20002091D6013091D7012817390739F630972C
:100E300051F51092D9011092D801B093D701A09327
:100E4000D601BCCFD383C28340815181840F951FCB
:100E5000C817D90761F44E5F5F4F88819981480FA9
:100E6000591F518340838A819B81938382832115FB
:100E7000310509F0B0CFF093D901E093D8019ECFAE
:100E8000FD01DC01C0CF13821282D7CFB0E0A0E019
:100E9000ECE4F7E00C94B5058C01009751F4CB011C
:100EA0000E9421068C01C801CDB7DEB7E0E10C94A9
:100EB000D105FC01E60FF71F9C0122503109E21712
:100EC000F30708F49DC0D901CD91DC911197C617A5
:100ED000D70798F0C530D10530F3CE0104978617B7
:100EE000970708F3C61BD70B2297C193D1936D9335
:100EF0007C93CF010E94BD06D6CF5B01AC1ABD0A20
:100F00004C018C0E9D1EA091D801B091D901512C9D
:100F1000412CF12CE12C109731F58091D601909164
:100F2000D7018815990509F05CC04616570608F0E8
:100F300058C08091000190910101009741F48DB754
:100F40009EB74091040150910501841B950BE81751
:100F5000F90708F055C0F093D701E093D601F901E5
:100F600071836083A0CF8D919C91119712966C90A4
:100F7000129713967C901397A815B90559F56C0133
:100F800042E0C40ED11CCA14DB0420F1AC014A19A2
:100F90005B09DA011296159780F0628273825183A1
:100FA0004083D9016D937C93E114F10471F0D70172
:100FB0001396FC93EE93129776CF22968C0F9D1F7B
:100FC000F90191838083F301EFCFF093D901E0938E
:100FD000D80169CF4816590608F42C017D01D301C8
:100FE0009ACFCB010E9421067C01009749F0AE0107
:100FF000B8010E940308C8010E94BD06870153CFB3
:1010000010E000E050CFFB01DC0102C001900D9226
:1010100041505040D8F70895FB01DC0101900D923A
:101020000020E1F7089510E0C2E6D0E004C0FE0120
:101030000E941B062196C336D107C9F7F894FFCF4B
:101040000000DA018000000000002D018D00BA00D0
:101050007A01EB00C900DD00202D20003A000D0AC6
:0210600000008E
:00000001FF
